:0E0000000C943D000C9400000C9400000C9435
:10000E0000000C9400000C9400000C9400000C9462
:10001E0000000C9400000C9400000C9400000C9452
:10002E006A000C9400000C9400000C9400000C94D8
:10003E0000000C9400000C9400000C9400000C9432
:10004E0000000C9400001027E80364000A00010071
:10005E00001000011000010000000000000001006F
:10006E00020066000400040068000000F894EE2709
:10007E00ECBBF1E0FBBFEBBFE5BF8DE0A2E0BB2721
:10008E00ED938A95E9F780E094E0A0E6ED93019771
:10009E00E9F7ECE6F0E085919591009761F0A59176
:1000AE00B59105901590BF01F00105900D92019745
:1000BE00E1F7FB01F0CFEFE5EDBFE4E0EEBFC0E608
:1000CE00D1E00C94A000EA93FA93EFB7EA931A9357
:1000DE000A931BB10CB1E12FEC7189F4E42D43941A
:1000EE00F0E0E05AFE4F0083E8E0E41509F4442402
:1000FE006394E8E0E61519F46624689420F80991F3
:10010E001991E991EFBFF991E99118951A9366202B
:10011E00F1F3E72D7394F0E0E05AFE4F1081E8E022
:10012E00E71509F47724F8946A947894E12F1991DD
:10013E000895EFEFEABBE0E0EBBBE7BBE8BBE4BB47
:10014E00E5BBE1BBE2BBE3BFE2BFECBFEFBDEEBD83
:10015E00EDBDECBDE7BDE6BDEBBDEABDE9BDE8BD5D
:10016E00E2BDE5BDE4BDE3BDE9BFE5BFE4BFEBB96C
:10017E00E0E9EAB9E6E8E0BDE0E0E0BDECE0E9B9CF
:10018E00E0E8E8B9E0E0E0BFE6B9EDB9E6BF7894A3
:10019E00662011F0BBDF5E2EE52DF0E0E130A0E031
:1001AE00FA0721F4E9E00E94180139C0E230A0E01C
:1001BE00FA0721F4E6E00E94180131C0E330A0E016
:1001CE00FA0721F4E0E90E94180129C0E430A0E00A
:1001DE00FA0721F4E0E60E94180121C0E530A0E004
:1001EE00FA0721F4E9E90E94180119C0E630A0E0EF
:1001FE00FA0721F4E9E60E94180111C0E730A0E0E9
:10020E00FA0721F4E6E90E94180109C0E830A0E0DF
:10021E00FA0719F4E6E60E941801E0E0EBBBB8CF4E
:10022E00FFCFEBBBA8ECB0E00C941D01109639F09B
:10023E008AEF90E00197F1F7A8951197C9F7089505
:00000001FF
