:020000000C945E
:100002004D000C9400000C9400000C9400000C9421
:1000120000000C9400000C9400000C9400000C945E
:1000220000000C9400000C9400000C9400000C944E
:1000320000000C947A000C9400000C9400000C94C4
:1000420000000C9400000C9400000C9400000C942E
:1000520000001027E80364000A00010000100001FC
:100062001000010000000000FE00FD00FB00F70090
:1000720080C001002D4E414E00494E460000040052
:100082000A006600070060016A0002007101720046
:100092000100770174000000F894EE27ECBBF1E058
:1000A200FBBFEBBFE5BF8DE0A2E0BB27ED938A95D6
:1000B200E9F780E094E0A0E6ED930197E9F7E0E844
:1000C200F0E085919591009761F0A591B591059029
:1000D2001590BF01F00105900D920197E1F7FB0128
:1000E200F0CFEFE5EDBFE4E0EEBFC0E6D1E00C9467
:1000F200AC00EA93FA93EFB7EA93DD2061F0DA9469
:10010200EA2DA394F0E0E759FE4FE081ECB9E8E074
:10011200EA1509F4AA24E991EFBFF991E99118953A
:10012200AA93E8E0ED15E9F3F894DD2011F45D9966
:100132000DC0EB2DB394F0E0E759FE4FA881A083E8
:10014200E8E0EB1509F4BB24D39402C0E881ECB9D2
:1001520078940C94EA01E0E0EABBEBBBE7BBE8BBB6
:10016200E4BBE5BBE1BBE2BBE3BFE2BFECBFEFBD7B
:10017200EEBDEDBDECBDE7BDE6BDEBBDEABDE9BD43
:10018200E8BDE2BDE5BDE4BDE3BDE9BFE5BFE4BF57
:10019200EBB9E8E4EAB9E6E8E0BDE0E0E0BDECE0B6
:1001A200E9B9E0E8E8B9E0E0E0BFE6B9EDB9E6BFF9
:1001B200A0E1E3D07894EFE0EABBE0EFEBBB4424AC
:1001C2005524E4E0F0E04E165F060CF06DC0F2013B
:1001D200A0E6B1E0EE0FFF1FAE0FBF1FEC91EBBB2D
:1001E200E9B3F0E0DF01EAB3F0E0AE1BBF0B4D0173
:1001F200F401EF3CA0E0FA0729F4E1E0F0E00E940C
:100202001A0244C0EC3CA0E0FA0729F4E2E0F0E074
:100212000E941A023BC0EE3AA0E0FA0729F4E3E09A
:10022200F0E00E941A0232C0EE3DA0E0FA0729F483
:10023200E4E0F0E00E941A0229C0EF3AA0E0FA07D7
:1002420029F4E5E0F0E00E941A0220C0EF3DA0E0B0
:10025200FA0729F4E6E0F0E00E941A0217C0EC3A2D
:10026200A0E0FA0729F4E7E0F0E00E941A020EC0CB
:10027200EC3DA0E0FA0729F4E8E0F0E00E941A025F
:1002820005C0E9E0F0E03F01A62D4ADF3ED07A92B8
:100292006A92A8E6B1E00E94EC01A8E6B1E05CD067
:1002A200F20131962F018DCF8ACFFFCFAA93E8B307
:1002B200EF70AE2FE881E07FEA2BE8BB82E08A95FF
:1002C200F1F7C29A82E08A95F1F7C29882E08A95A4
:1002D200F1F77FC0AA93A881E9DFE881E295E8837C
:1002E200A881E4DF81E18A95F1F773C0AA93E881DE
:1002F200F0E0EF58FE4FE081A981AE0FEBDFC9803D
:10030200E881E093750122960895A2E00E942202FC
:10031200ACE0E0DFA1E00E942202E0E0E0937501A0
:10032200CE2E0895AA93A881AA3021F0E0917601F9
:10033200CE1660F0E0E0EA93A0917501AF5FA09362
:100342007501D4DFA881AA3009F443C0C394C09ACE
:10035200A881C0DFC0983DC0BA93AA931A93A9811D
:10036200BA81ED91A983BA831E2FE03019F0A12F33
:10037200D9DFF5CF188123960895AA93E7B3E06FEA
:10038200E7BBBA9AB89AB99AC298C098C198E8815C
:10039200E0937601E058E0937301E881E054E09342
:1003A2007401A4E1B0E00E942F020E9428020E9480
:1003B20028020E942802A0E279DF81E28A95F1F701
:1003C200A8E288DFA4E086DFA5E884DFA6E082DF7A
:1003D2009CDF21960895BA93AA93A991B991E991C4
:1003E200F99130962AF4E095F09531966DE26D938D
:1003F200E89480E197E20DD088EE93E00AD084E69B
:10040200992707D08AE005D06E2F10D066276C930B
:1004120008956627E817F90720F06395E81BF90BA2
:10042200C9F7662311F416F008956894605D6D9320
:1004320008953F01A62D0E949100AEE1B0E00C9418
:100442002F020E946B01A3E0B0E00C942F02A0E304
:100452000E94570181E28A95F1F70895109639F0CA
:100462008AEF90E00197F1F7A8951197C9F70895DF
:00000001FF
